:0200000280007C
:10000000402E0720F9240800F5240800F5240800F4
:10001000F5240800F5240800F5240800000000007D
:10002000000000000000000000000000F5240800AF
:10003000F524080000000000F5240800F52408005D
:10004000F5240800F5240800F5240800F52408002C
:10005000F5240800F5240800F5240800F52408001C
:10006000F5240800F52408000000000029240800F9
:100070003D24080051240800652408000000000009
:1000800000000000F5240800F5240800F52408000D
:10009000F5240800F5240800F5240800F5240800DC
:1000A000F524080000000000F5240800E5250800FC
:1000B000F5240800F5240800F5240800F5240800BC
:1000C000F5240800F5240800F5240800F5240800AC
:1000D000F5240800F7240800F5240800F52408009A
:1000E000ED140800F5240800F5240800F5240800A4
:1000F000F524080010B5054C237833B9044B13B12F
:100100000448AFF300800123237010BD800B07204B
:1001100000000000CC7208000C4B43B10C4810B535
:100120000C49AFF300800C48036823B910BD0A489E
:10013000036833B97047094B002BF7D0BDE8104076
:100140001847064B002BF5D0184700BF00000000F1
:10015000CC720800840B0720CC720800000000005D
:100160000E4900230B700E4A13800E4AA120107016
:1001700020205070538093800220D08013810A4A3F
:100180004FF4E130106013715371082393710B78B1
:100190000133DBB20B700120704700BFA70B0720B3
:1001A0003C0C0720D40C0720A00B0720024A137830
:1001B000013BDBB213707047A70B0720044A13788A
:1001C000013BDBB2137013780022024B1A707047A8
:1001D000A80B07209E0B07200020704700207047C7
:1001E0001D4B1B7813F0800F05D103F06003202B0B
:1001F00018D00020704703F06003202B01D00020AE
:100200007047154B5B78212B24D1134BDB88072BD0
:1002100001D000207047104B104A9A6007229A8143
:10022000012070470C4B5878202804D0222814BF96
:10023000002001207047084BDB88072B01D00020ED
:100240007047054B064A1A61044A9A6007229A8150
:100250000120704700207047000E0720A00B0720E8
:100260006502080070470000444B1B7803B17047DB
:1002700070B584B0424B9847002841D0414B1C8850
:10028000414B9847844276D0EFF31083B3FA83F35F
:100290005B09039372B6BFF35F8F00223B4B1A706A
:1002A000039D3B4B1C78E4B23A4B33F81430002BDF
:1002B0002DD00022384B1A80384B1B78002B42D1AE
:1002C000B4FA84F35B09324A137001222B4B1A7083
:1002D00025B12E4B1A70BFF35F8F62B626462D4BA9
:1002E00033F81430402B14BF0125002534D0244BA3
:1002F000984700282BD0244B9847224B18802EE09B
:10030000204B1C88264B98478442BDD133E0224ABB
:100310001388013313801A4B984718B91E4B1B885A
:10032000632B08D9164B98470028C2D01A4B1B885C
:10033000B3F5487FBDD2F5B10122144B1A70BFF35B
:100340005F8F62B617E0B4FA84F46409BDE7144B1A
:1003500098470C4B188002E000220A4B1A800D4B84
:1003600033F816300F4A00920F4A02EB84122946E6
:1003700081200E4CA04704B070BD00BFD00C0720F8
:10038000051B0800CC0C0720511B0800CC010720DE
:10039000C80C0720C40C07209C0B0720400C07202A
:1003A000411B0800B1030800440C0720B91D0800D8
:1003B00000B1704708B5074B1B78B3FA83F35B09AC
:1003C000054A22F81300054B1870054B1870054BB1
:1003D000984708BDC80C0720C40C0720400C072014
:1003E000D00C07206902080008B50020014B98478F
:1003F00008BD00BF6902080082B0EFF31083B3FAB2
:1004000083F35B09019372B6BFF35F8F00220B4B3E
:100410001A7001990A4B188883B20A4A1278D2B22C
:10042000094830F8120080B2C01A29B10122034BEA
:100430001A70BFF35F8F62B602B07047CC0107201D
:10044000340C0720300C07202C0C072008B5034B78
:100450009847003018BF012008BD00BFF90308000D
:1004600010B584B0EFF31083B3FA83F35B09039301
:1004700072B6BFF35F8F00221E4B1A70039B1E4A99
:1004800014781E4A12784AB9E4B21D4A118889B21A
:100490001C4A32F8142092B2914209D23BB3012295
:1004A000144B1A70BFF35F8F62B6002004B010BD0A
:1004B0000021134A1180B4FA84F252090E490A70DD
:1004C00001210E4A117023B10A4B1970BFF35F8FDF
:1004D00062B600200C4B98470C4B009340230C4A0B
:1004E00002EB8412012102200A4CA047DEE7002023
:1004F000DCE700BFCC010720300C0720380C0720B8
:10050000340C07202C0C07204D040800AD05080012
:10051000AC0B0720B91D080010B50024164B1C7049
:10052000164B1C70164B1C70164B1C70164B1C8007
:100530005C80164B1C802046154B9847154B1C7051
:10054000154B1C70154B1C805C80154B1C80204685
:10055000144B9847014640B1074A13780133DBB288
:1005600013701378DBB2012B01D0084610BD0122B5
:100570000D4B1A70F9E700BFA80B0720D00C07201D
:10058000400C0720C80C0720C40C0720CC0C072007
:1005900069020800380C0720300C07202C0C0720BB
:1005A000340C0720610408009E0B0720E8B910B541
:1005B00082B010460D4B1C78B4FA84F4640951B132
:1005C00089B20B4B23F8141000200A4B18700A4B09
:1005D000984702B010BD094B00934023084A02EB34
:1005E00084120121074CA047F3E77047300C072025
:1005F0002C0C0720380C072061040800AD0508000A
:10060000AC0B0720B91D080082B0EFF31083B3FADA
:1006100083F35B09019372B6BFF35F8F0022144B23
:100620001A70019A134B1B78DBB2134931F813008F
:1006300040280AD0C0F140002AB101220C4B1A70A8
:10064000BFF35F8F62B602B070470C49097800298A
:10065000F0D10B4909780029ECD101200849087034
:10066000B3FA83F35B0903490B700020E2E700BF94
:10067000CC010720C80C0720C40C0720D00C072091
:10068000400C072008B5034B9847003018BF0120E5
:1006900008BD00BF090608002DE9F04182B00C46F4
:1006A0001D4B9D79092D14BF002501251B4E1C4FA4
:1006B000DFF87C8022E0EFF31083B3FA83F35B0969
:1006C000019372B6BFF35F8F00233B70019898F8D7
:1006D0000030DBB2134A32F8131001F1010E22F898
:1006E00013E0114A02EB83135C5420B101233B70E9
:1006F000BFF35F8F62B665B1241200250020B047BA
:100700000028D8D1094B1B78002BF7D102B0BDE8E7
:10071000F0810120FAE700BFA00B07208506080042
:10072000CC010720C40C0720440C07209E0B072097
:10073000C80C072008B501460020014B984708BDAA
:1007400099060800104B1B681A6853881A440378EE
:100750001844904211D24378042B10D08B4209D018
:1007600003781844904206D24378042B09D08B4278
:10077000F6D107E070470020704700207047002046
:1007800070470020704700BFEC0C072008B5034BF2
:10079000987800F07F00024B984708BD000E0720B4
:1007A000091B0800194B1B784BB3194B1B681B68BE
:1007B0001A79824225D970B4164A13605C881C44A9
:1007C000A34220D20025012607E0124A13600FE061
:1007D0001A7813443546A3420CD25A78042AF7D12A
:1007E0009A788242F4D1DA788A42F1D1002DECD1A4
:1007F000012002E0074A1360002070BC704700200F
:100800007047002070470020F7E700BFE80C072082
:10081000EC0C0720F00C07202DE9F84304460021DA
:10082000134B9847804610B94046BDE8F883114BFA
:100830001B685B6853F82490D9F80C309847014640
:1008400020460B4B984780460028EDD00A4B1C6889
:1008500005260A4D0A4F31462046A847044610B1E6
:100860008078B847F7E7D9F804309847DCE700BF4D
:10087000A5070800EC0C0720F00C0720450708002E
:100880006D1B08002DE9F0418046104B9847034648
:10089000C8B10F4B1C6805260E4D0F4F3146204640
:1008A000A847044638B18288C1788078B8470346A3
:1008B0000028F3D107E0094B1B685B6853F8283028
:1008C0001B68984703461846BDE8F081A507080055
:1008D000F00C072045070800B51E0800EC0C0720A7
:1008E00008B5014B984708BD9512080070B50D4B2F
:1008F0001B7883B10C4B1B681B681B795BB1002410
:100900000A4E094D2046B0470134E4B22B681B68FB
:100910001B79A342F6D80022024B1A700122044B25
:100920001A8070BDE80C0720EC0C0720190808009D
:10093000DE0C072038B50D4B1B78B3B10C4B1B6890
:100940001A6812798AB10024094D06E00134E4B234
:100950002B681A681279A24207D95B6853F82430D1
:100960001B69002BF2D09847F0E738BDE80C072050
:10097000EC0C0720F8B5964B00229A811A615A6157
:100980001B7813F0800F14D113F0600F00F0B880C3
:100990008F4B1B7803F01F03012B00F08B818C4BD6
:1009A0001B7803F01F03022B00F0AC8100231846D4
:1009B000F8BD874AD288002A00F0CD8113F0600F7D
:1009C000E6D113F01F0306D181494978062913D0D7
:1009D000082958D049B1012B5CD0022BD8D17C4BCF
:1009E0005B78002B7ED0002360E1022AD0D1022167
:1009F0007848794B98479FE0754B5A88130A013B1A
:100A00000E2B00F25081DFE813F00F001C003600BF
:100A10004E014E014E014E014E014E014E014E015E
:100A20004E014E014E012E006C4B186801786A4B46
:100A30009847674BDA889B8993427DD9644B9A81AA
:100A40007AE0D2B2654B1B685B7C9342A0D9634BC2
:100A50005B6853F8320041885F4B98475C4B9B685A
:100A600002225A70E5E75D4B9868002890D04188D3
:100A7000594B9847DDE712F0FF0F89D10421584800
:100A8000554B9847D5E7012A82D101215548524B51
:100A9000984751E04E4949780A299ED1012A7FF4AE
:100AA00077AF504B1B78002B3FF472AF484B1C794B
:100AB0004D4B1D682B681B79A3427FF669AF00215F
:100AC00020464A4B984700283FF462AF6B6853F8C2
:100AD0002430DB689847464B1870012118463E4B7E
:100AE000984729E0022A7FF453AF394B1879414BDC
:100AF0009847414B188002211846374B98471BE016
:100B000013F01F0340F08280314A5278013A082ADC
:100B10007CD8DFE812F013007B00CA007B000900DC
:100B20007B007B007B002300294BDB88002B7FF4BC
:100B30002FAF324A264B1A61012338E7244BDB885A
:100B4000002B7FF425AF224B5B88012B7FF420AF75
:100B5000204A138823F002031380EDE71C4BDB8847
:100B6000002B7FF415AF264B984700283FF410AFB9
:100B7000174B9A78194B1B685B7C9A423FF708AF7A
:100B8000204B9847124B9B78164A1370002BD3D0FA
:100B900003F10053013B114A526802EBC3001249B2
:100BA000086052F833301B79002BC5D0002426464C
:100BB000154D0F4631462046A84700283FF4E8AEC1
:100BC0000134E4B23B681B681B79A342F2D8B3E757
:100BD000000E0720DE0C0720611B080058010720CB
:100BE00054010720E80C0720EC0C0720A50708009B
:100BF000E40C0720C91B0800E00C07208D07080043
:100C0000311B0800ED08080085080800012B0AD0F8
:100C1000022B7FF4BDAE524B5B78012B20D0032B0F
:100C20002ED0002342E04E4A52780B2AF0D14C4B92
:100C3000DB88002B7FF4ACAE4A4B1B78002B3FF4D3
:100C4000A7AE474B1C795D882046474B9847002844
:100C50003FF49EAEE9B22046444B9847034625E058
:100C60003F4BDB88002B7FF493AE3D4B5B88002B22
:100C70007FF48EAE3A4B18793D4B9847034615E00A
:100C8000374BDB88002B7FF483AE354B5B88002B22
:100C90007FF47EAE324C2079364B98472079364B24
:100CA0009847034602E0002300E00023002B7FF476
:100CB0007EAE6DE62B4B1B78002B4ED0284B1C795B
:100CC0002E4B1D682B681B79A34201D800236EE6CA
:100CD000002120462A4B984700283FF460AE6B68FD
:100CE00053F82450EB68984701462046244B984718
:100CF00000283FF454AEAB689847034600287FF4C1
:100D000056AE4CE6174B1B780BB31C4B1A68136896
:100D10001B79F3B100241A4E184F536853F824502E
:100D2000EB68984701462046B047034600283FF449
:100D30003EAEAB689847034600287FF438AE0134D6
:100D4000E4B23A6811680979A142E6D82FE6002397
:100D50002DE600232BE6002329E6002327E600BF2B
:100D6000000E0720E80C0720190808008508080075
:100D7000DD1C0800AD200800DD1B0800EC0C07207E
:100D8000A507080010B489014318022444504FF00D
:100D9000FF319962196A5A6010BC704789010523B6
:100DA0004350704700EB8111CA61704700EB81111D
:100DB0004A62704700EB8111086A704782B0EFF316
:100DC0001083B3FA83F35B09019372B6BFF35F8FAD
:100DD00000220C4B1A70019B01210B4A116023B1B8
:100DE000084B1970BFF35F8F62B60222074B1A607F
:100DF000074A0023136153619381064A137002B0BE
:100E0000704700BFCC01072020C20A4060C10A40E1
:100E1000000E0720FC0C07200522034B1A704FF42C
:100E20000022024B1A607047FC0C0720F0C10A40F8
:100E300082B003220F4B1A70EFF31083B3FA83F3DF
:100E40005B09019372B6BFF35F8F00220A4B1A70E1
:100E500001980A4901220A60094B1A6008220A60B7
:100E60001A6028B10122044B1A70BFF35F8F62B67B
:100E700002B07047FC0C0720CC01072060C10A407B
:100E8000F0C10A4008B5024B1B6903B1984708BD81
:100E9000000E072030B585B0EFF31083B3FA83F36B
:100EA0005B09019372B6BFF35F8F00224C4B1A703F
:100EB000019B01214B4A116023B1494B1970BFF3CB
:100EC0005F8F62B6484B1B78032B57D0474B1B886C
:100ED000474A9489E41AA4B2C4B9464A11880B441B
:100EE0009BB21380424AD2889A424CD0424B1B7824
:100EF000002B48D13E4B5B69002B61D098470028FE
:100F00005ED00022394B1A80394B9C893F2C57D92F
:100F10000022394B1A704024354B9A68334B1D8898
:100F2000EFF31083B3FA83F35B09029372B6BFF356
:100F30005F8F00212A4B19700298304B1B6813F009
:100F4000020F41D144B12A442D4B12F8011B03F882
:100F5000011BD9B2A142F8D3244B1A8814441C8037
:100F60000123284A136090321360002836D01A46B5
:100F70001B4B1A70BFF35F8F62B62FE0224B98476E
:100F8000224B98472AE00422174B1A70EFF3108384
:100F9000B3FA83F35B09039372B6BFF35F8F00224A
:100FA0000F4B1A70039A102316490B6090310B6097
:100FB000A2B101220A4B1A70BFF35F8F62B60DE037
:100FC00001220D4B1A70A7E728B10122044B1A70B9
:100FD000BFF35F8F62B60422034B1A7005B030BDB9
:100FE000CC01072020C20A40FC0C0720F80C072087
:100FF000000E0720FA0C0720F40C072030C10A402D
:101000000000182060C10A40850E0800BD0D0800D0
:10101000037D13F0010F13D010B50C46037D6FF361
:1010200000030375036853B1064951F8221011F407
:10103000807F18BF42F0800281682046984710BD2B
:10104000704700BF00C10A40431E03EB43015F4AE3
:1010500002EBC102127D12F0010F00F0B580F0B575
:1010600083B00A46594901EBC202D16892689142A5
:1010700077D0521AB2F5803F92BF17044FF48032F6
:101080000027534C54F8205015F4807F14D054F8A6
:101090002050C5F302150824AC40013C144213D083
:1010A00047F0080703EB4304484D05EBC404257DD6
:1010B0006FF34105257507E054F82050C5F3C125AD
:1010C000012D37D047F01407424C04EB001403EB1A
:1010D00043053E4E06EBC5056D6829446160EFF39C
:1010E0001081B1FA81F14909019172B6BFF35F8FA6
:1010F000002539490D70019DE16811F0100F22D1D2
:1011000047F02107A76003EB430006EBC001C86866
:101110001044C8600A614FF0007000FA03F32F4AD0
:101120009361002D4ED001222B4B1A70BFF35F8FBD
:1011300062B647E054F82050C5F302150824AC40CD
:10114000A242C1D8BEE72DB10121234A1170BFF3DD
:101150005F8F62B603EB43021C4901EBC202D16808
:1011600091601B4A52F8202012F4807F21D003EBBB
:101170004302164901EBC202127D12F0020F18D091
:101180000122174B43F82020303B53F8203013F452
:10119000803F1CBF134B43F820200122124B43F821
:1011A00020204FF4805202FA00F0A3F5F873986102
:1011B00008E0024603EB43030021044800EBC300B0
:1011C0000A4B984703B0F0BD704700BF000D0720E1
:1011D00000C10A4000C30A40CC01072000C00A40F9
:1011E00060C10A4090C10A40F0C10A4011100800D5
:1011F00082B0014628BB244B1B781BB9224B1970C7
:1012000002B07047214B9B7803B9FEE7EFF31083E0
:10121000B3FA83F35B09009372B6BFF35F8F0022CA
:101220001B4B1A700098194A9378013B9370002861
:10123000E4D00122164B1A70BFF35F8F62B6DDE770
:10124000FEE7114B1B78002BD8D1104B9B78FF2B5E
:10125000F6D0EFF31083B3FA83F35B09019372B610
:10126000BFF35F8F00220A4B1A700198074A9378E8
:10127000013393700028C1D00122054B1A70BFF3CF
:101280005F8F62B6BAE700BFF50C0720F80D0720A4
:10129000CC01072010B582B0EFF31083B3FA83F3CB
:1012A0005B09009372B6BFF35F8F0022544B1A7034
:1012B000009C2820534B9847534B9847534B502240
:1012C00083F828234FF480725A604FF48020504BEB
:1012D0009847504BD3F8002822F08072C3F80028BA
:1012E000D3F8002842F00072C3F80028D3F8002891
:1012F00022F08072C3F80028D3F8002842F480520C
:10130000C3F80028D3F8002842F40042C3F80028AC
:101310001A6822F480521A601A6842F440621A6015
:10132000D3F8002822F48042C3F800281A46D2F8E5
:10133000043813F4804FFAD0374B1A7D02F0FE02C6
:101340006FF382021A7593F82C2002F0FE026FF3FD
:10135000820283F82C2093F8442002F0FE026FF3FF
:10136000820283F844202B4B0222C3F80828D3F8CA
:10137000043813F4006F1CBF264BC3F80C28254B10
:10138000D3F8002842F00202C3F80028D3F800285E
:1013900042F48042C3F80028204B1B781BBB01227B
:1013A0001E4B1A7000221E4B1A701E4BDB78FF2B4F
:1013B00018D0EFF31083B3FA83F35B09019372B68D
:1013C000BFF35F8F00220E4B1A700199154AD37834
:1013D0000133D37051B10122094B1A70BFF35F8FF3
:1013E00062B603E0FEE700200F4B98472CB10122C4
:1013F000034B1A70BFF35F8F62B602B010BD00BF1F
:10140000CC010720912408002D21080000E100E014
:10141000D124080000C00A40000D0720F60C072068
:10142000F50C0720F80D0720F111080030B583B046
:10143000EFF31083B3FA83F35B09019372B6BFF342
:101440005F8F0022194B1A70019C0120184B98479E
:10145000184AD2F8003823F48043C2F80038D2F892
:10146000043813F4804FFAD0124B1A6822F48072B9
:101470001A6008259D610121996110229A6104205A
:1014800098619D60986002209860D9609A60D3F856
:10149000002842F48042C3F8002824B1034B19709D
:1014A000BFF35F8F62B603B030BD00BFCC01072031
:1014B000F111080000C00A4008B50A4BD3F8002813
:1014C00022F48042C3F800281A6842F480721A603D
:1014D000D3F8002842F48042C3F800280020024BD1
:1014E000984708BD00C00A40F11108002DE9F043FB
:1014F00085B09A4B984720B9994B5B6813F0010F60
:101500000FD0974B5B6813F0040F14D0944B042258
:101510009A60D3F8043813F4405F09D005B0BDE8F1
:10152000F08372B6BFF35F8F00228E4B1A70F5E71F
:101530008D4B9847F2E78A4B5B6813F0020F33D16B
:10154000874B5B6813F4805F26D0884B10221A60AB
:1015500008221A60F03B1B6813F0040F2AD1844B59
:101560001B6813F0010F05D0824B1B6813F0010FAD
:1015700040F085807E4B1B6813F0020F40F08280A4
:101580007B4B1B6813F0080F40F03081784B1B68D1
:1015900013F0100F40F03D81774E0123704A4FF059
:1015A000007E4FF4805C7FE102226D4B9A606E4BAF
:1015B0009847B3E7714B1B78002B41D16C4B1B68EC
:1015C000C3F30A53082B40D16D4A6E4B6E4813F893
:1015D000011B02F8011F8342F9D16C4B9847002888
:1015E00039D004226A4B1A606A4B93F90030002B01
:1015F00037DB684BDB88002B3ED00022664B1A801D
:10160000664B1A8001215D4B19701021604B1960E7
:10161000EFF31083B3FA83F35B09019372B6BFF360
:101620005F8F504B1A70019B5D4A1160002B3FF495
:1016300075AF01224B4B1A70BFF35F8F62B66DE737
:10164000584B9847584B9847B8E7584B984704224F
:101650004F4B1A6062E7554B984704224C4B1A6077
:101660005CE700234C4A13804C4A13800222434B10
:101670001A704F4B984751E74E4B98474EE74C4BEB
:1016800098474BE73D4B1B78012B0BD0022B04D026
:10169000042B02D0454B984701E0424B9847424B00
:1016A00098473BE7324B1868C0F30A50394B9B8987
:1016B0003A4A148822189342BCBF1B1B98B2354B80
:1016C0009A6878B1631E1A442E4B13F8011B02F876
:1016D000011FD9B28142F8D30444A4B22F4B1C801D
:1016E00040280CD02B4B9C815B6913B19847002894
:1016F0002ED00222264B1A602E4B98470EE7254B20
:10170000DA88254B1B8823449A42EBDD214B9B89C9
:10171000A34251D01E4B02221A6010221A60EFF32E
:101720001083B3FA83F35B09029372B6BFF35F8F42
:1017300000210C4B1970029B19490A60002B3FF4E1
:10174000EDAE0122074B1A70BFF35F8F62B6E5E67C
:10175000164B984702220E4B1A60DFE6E52408007C
:1017600000C00A40CC0107203509080020C20A4009
:1017700030C10A40C0C10A4034C10A40FC0C0720F5
:10178000FF0D072000001820080018207509080028
:1017900060C10A40000E0720FA0C0720F80C072051
:1017A000F0C10A40850E0800BD0D0800190E0800A2
:1017B000950E0800310E0800A14B5B6953B19847A4
:1017C00070B1A049A04A0B88108803440B80002305
:1017D00013809FE79D4B984702229D4B1A609DE620
:1017E0009A4B984702229A4B1A6097E60822984B28
:1017F0001A60303B1B6813F0010F7FF48FAE954BDE
:101800001B78032B7FF48AAE4FF40022924B1A60B0
:1018100084E610228E4B1A60303B1B6813F0020FD7
:101820007FF47CAE8B4B1B78012B07D0042B7FF40D
:1018300075AE4FF40022884B1A606FE6874B9847CD
:101840006CE6874B03EB0013DA6812F0010F7FF4AC
:1018500065AE844A5161DD682D0C08D0824B790059
:10186000CC1903EBC404E268521BE260A2607F4B18
:10187000984753E67E4B012249F80320744949F802
:1018800001204FF4804249F8032007EB4707024646
:101890000021754800EBC700764B98473EE60133C0
:1018A0000436042B00F0F680D8B21D465F1EB84601
:1018B00014690EFA07F10C4202D054682142C0D1DB
:1018C00011690CFA05F52942E9D04FEA830906F1BE
:1018D0009004D6F8901011F0010F03D0316811F088
:1018E000010FC7D1216811F4805FD8D0316811F49D
:1018F000405FD4D14FF480525D4B49F80320A3F5EB
:1019000008735D6108EB4808574B03EBC80898F86B
:1019100014206FF3820288F81420574A59F80230D5
:1019200023F4007349F802304B4B4FF4002249F87E
:1019300003204FF4802249F80320EFE5494C0823A7
:10194000A360494E0122114630464A4DA847022263
:10195000012106F11800A8470322012106F13000F9
:10196000A847464B9847236823F07F0323602368EA
:1019700043F080032360404A136823F4CB5323F0E1
:101980001C0343F030031360136843F00203136039
:10199000E36943F00103E361EFF31083B3FA83F3E8
:1019A0005B09039372B6BFF35F8F0022344B1A704A
:1019B000039A294B04211960022119604FF48053C6
:1019C000A3612AB101222E4B1A70BFF35F8F62B65A
:1019D0002C4B9847A2E5234BD3F8002822F48042F1
:1019E000C3F8002801225A6110229A61D3F8002816
:1019F00042F48042C3F800280020234B98478DE52D
:101A0000184BD3F8043813F0020F3FF487AD154B91
:101A1000D3F8002822F48042C3F800280222C3F839
:101A20000828D3F8002842F48042C3F80028D3F8ED
:101A3000043813F4006F14BF144B154B98476DE531
:101A4000000E0720FA0C0720F80C0720190E0800DA
:101A500060C10A40FC0C0720F0C10A40310E0800AA
:101A600000C30A4000C00A40000D072049100800CA
:101A700020C20A401110080000C10A40ED08080009
:101A8000CC010720BD0D0800F11108002D1408003D
:101A9000B9140800194B5B6813F0080F7FF44EAFC0
:101AA000164B1B6913F0010F04D0144B5B6813F045
:101AB000010F90D1114B1B6913F0100FA0D00F4BE9
:101AC0005B6813F0100F9BD00C4AD2F8003823F457
:101AD0008043C2F800381346D3F8042812F4804F2C
:101AE00003D15A6812F0010FF6D0044B10225A614C
:101AF00001209861024B984710E500BF00C00A40E2
:101B0000F111080000207047084B1A6822F080028B
:101B10001A601A6822F07F0200F07F0002431A6008
:101B20001A6842F080021A60704700BF00C00A4085
:101B3000024B186800F07F00704700BF00C00A40E9
:101B4000024B186AC0F3CA00704700BF00C00A40C9
:101B5000024B186AC0F30D00704700BF00C00A4076
:101B6000014B986099817047000E072000F00F022A
:101B7000032A00D9704770B51048C369012101FAE2
:101B800002F423EA0403C36100F5807050F82230A8
:101B900023F0020340F82230561E094C06FA01F5E4
:101BA000A81904EBC000074B9847354404EBC50463
:101BB000237D6FF38203237570BD00BF00C00A4010
:101BC000000D07201110080000F00F00024B53F821
:101BD0002000C0F3C0407047C0C10A4000F00F03AE
:101BE000032B5DD8354A52F8232012F4002F59D127
:101BF00010B483B0591E01EB4104314A02EBC40218
:101C0000127D12F0040F4FD112F0010F50D1EFF3FB
:101C10001082B2FA82F25209019272B6BFF35F8F5C
:101C20000024284A1470019C10F0800F18D1264916
:101C300051F8232022F4007241F823204021234A46
:101C400042F823104FF40021903242F82310002C68
:101C500032D001201B4B1870BFF35F8F62B624E0B7
:101C60001B4A52F8232012F4405FE0D001EB4101FF
:101C7000134A02EBC1010A7D42F004020A754FF4D7
:101C80008052144941F8232002FA03F3124A936167
:101C900084B101200B4B1870BFF35F8F62B604E074
:101CA0000020704701207047012003B010BC70472E
:101CB0000020FAE70120F8E70120F6E7C0C10A405A
:101CC000000D0720CC01072000C10A4060C10A4076
:101CD00030C10A40F0C10A4000C00A4000F00F00C5
:101CE000032851D810B5431E03EB43012C4A02EBE5
:101CF000C102127D12F0040F48D00A46284901EBB8
:101D0000C202117D6FF38201117582004FF4805180
:101D1000244C44F820108140A4F5087461612249E4
:101D200051F8201011F4002F14D02049515811F00F
:101D3000400F06D040201E4950504FF48020903173
:101D400050504FF40020174950501A48115841F490
:101D50000071115003EB4302114901EBC202127DE5
:101D600012F0010F01D1012010BD08465900CA1818
:101D700000EBC202147D6FF3000414750B4450F89D
:101D800033309847012010BD00207047820006497B
:101D900051F8201011F4002FC7D1012010BD00BF51
:101DA000000D072020C20A40C0C10A4030C10A40CD
:101DB00060C10A4000C10A4000F00F00032864D847
:101DC000F0B583B0364CE569012484402C425ED0E6
:101DD000344C54F8204014F4002F5BD1441E04EB23
:101DE0004406314D05EBC6052D7D15F0040F53D18A
:101DF000EFF31085B5FA85F56D09019572B6BFF35D
:101E00005F8F0026294D2E70019F04EB4405264E5E
:101E100006EBC5052D7D15F0010F09D0002F3DD033
:101E20000122224B1A70BFF35F8F62B600202FE0B1
:101E300004EB44051C4E06EBC5052E7D46F001065D
:101E40002E752FB10126194D2E70BFF35F8F62B62C
:101E5000154F04EB4405ED007E197260B36000225B
:101E6000F2603261089A7A5111B9B3FA83F14909E3
:101E700004EB44040C4B03EBC404237D61F34103E6
:101E800023750B4B9847012002E00020704700208B
:101E900003B0F0BD0020FBE70020F9E70020F7E7E2
:101EA00000C00A40C0C10A40000D0720CC01072035
:101EB000491008002DE9F04F83B000F00F04032C07
:101EC00000F2DF80744BDD690123A3402B4040F01A
:101ED000DD8011F0030500F0DB80022D20D9032DF9
:101EE00040F0D6804FF0000E6C4E06EB840556F89D
:101EF000247027F4CB5727F01C07C90201F4C05106
:101F000040B20028B8BF4FF48073A2F5806080B261
:101F1000B0F57C4F07D3082A24D95200013A04E0D7
:101F20004FF0010EE0E740F2FF72B2FA82F241EAAE
:101F30008E011943C2F11C0341EA031323F4D06359
:101F400023F00303DB04DB0C3B4346F8243001277A
:101F5000A740BFB2022C1CD8514A03234E484FF071
:101F6000010E06E00F22E0E7013B043AD9B28C42B1
:101F70000FD2C6690EFA03F10E42F5D00F43BFB27D
:101F8000C66926EA0101C161116821F002011160F0
:101F9000EAE704EB4403434E06EBC306DFF8049183
:101FA000DFF8F480DFF800A11DE001EB41033D4ABA
:101FB00052F83340002C6DD02B6813F4807F18BF8B
:101FC00040F0800001EB4101364B03EBC1010246BA
:101FD000C9680120A047002354E0013404351836B5
:101FE000E3B2032B4BD8E0B247FA04F313F0010F2E
:101FF000F3D0611E01EB410309EBC30393F814E036
:102000000EF001026FF3000E83F814E02B6843F02A
:1020100002032B60D8F81CE00123A34043EA0E031F
:10202000C8F81C302B6B13F4802FBED02B6843F400
:1020300000732B60002AD0D056F80C3C56F8082CC0
:102040009A1A46F80C2C2B6813F4807F18BF40F0C6
:10205000800056F810BC56F814CC01EB410109EB96
:10206000C101097D56F8183C0093ABEB02036244B2
:10207000C1F34001D04703460028AED102E001235E
:1020800000E00023184603B0BDE8F08F0023F9E715
:102090000023F7E70023F5E700C00A4000C10A402B
:1020A0000CC10A40000D0720B91D080070B500F0F2
:1020B0000F02541E4FF00073A34016494B61164B9C
:1020C00003EB021300259D604FF4805393404B6156
:1020D00010F0800F08D104EB440401210F4800EBFD
:1020E000C4000F4B984770BD93000E4818440E4D26
:1020F0001D444FF4005601F5E071194404E02E60D0
:102100000B6813F4005FFBD1036813F4405FF6D152
:10211000E1E700BF00C00A4000C30A40000D0720ED
:102120001110080030C10A40F0C10A4008B5044B44
:1021300098470020034B9847034B984708BD00BFC2
:1021400079240800B1240800C524080010B54FF414
:102150000042164B5A600B20154CA0470C20A0479C
:102160000D20A0470E20A0474FF060513B20114C9E
:10217000A0474FF060515520A0474FF060515620C6
:10218000A0470D496820A0470C495C20A0470C4A95
:102190004FF440710B480C4B98474FF000612B20D7
:1021A000A0474FF000612A20A04710BD501A0E40F2
:1021B000912408006D220800790000280100002801
:1021C00001000008000E0E403D2308004264B1F1FA
:1021D000805F16D00BD849B1B1F1006F05D1036F04
:1021E000016F0B4023EA0203036742607047B1F1BD
:1021F000405FFBD0B1F1605FF8D0B1F1205FF4D166
:102200007047036F13430367EFE7416412F0010F58
:1022100014BF4166016612F00A0F14BF01624162E9
:1022200012F0020F07D112F0080F18BFC0F8841087
:10223000416101607047C0F88010F9E710B4019C5B
:10224000416444B9016643B1016542B9416301612A
:10225000016010BC70474166F5E74165F5E7016331
:10226000F5E7C06C7047806C7047000070B582B0B5
:102270000D46430903F5001303F207735C0201F0F6
:10228000F043B3F1205F31D016D8B3F1006F1BD00B
:10229000B3F1805F16D100F01F0001268640324660
:1022A0004FF080512046224B984715F0010F14BF84
:1022B00066662666012017E0B3F1405F21D0B3F1D6
:1022C000605F1ED000200FE000F01F000126864056
:1022D00032464FF000612046154B984715F0010F2C
:1022E00014BF66662666012002B070BD00F01F01B3
:1022F00001262A4606FA01F120460E4B9847304641
:10230000F2E705F0605200F01F01012605EA06031E
:102310000093C5F38003B2F1605F14BF0022012275
:1023200006FA01F12046044CA0473046DCE700BF26
:10233000CD2108000B2208003D22080070B582B0B4
:1023400005460E46144602F0F043B3F1205F27D055
:1023500011D8B3F1006F16D0B3F1805F11D10A46E6
:102360004FF08051194B984714F0010F14BF6E665F
:102370002E66012012E0B3F1405F15D0B3F1605F2B
:1023800012D000200AE00A464FF000610F4B984738
:1023900014F0010F14BF6E662E66012002B070BDEE
:1023A0000B4B98470120F9E704F0605204F0010359
:1023B0000093C4F38003B2F1605F14BF00220122D6
:1023C00031462846034CA0470120E7E7CD2108000D
:1023D0000B2208003D2208002DE9F0410446884602
:1023E0000E4B9847054620460D4B9847054013D0A5
:1023F0000C4C04F1600603E0B4420DD010345DB122
:1024000020684045F8D161682942F5D0E3689847D3
:10241000636825EA0305EFE7BDE8F0816322080061
:1024200067220800480D072008B50B210148024B20
:10243000984708BD000E0E40D923080008B50C21AE
:102440000148024B984708BD00100E40D9230800F0
:1024500008B50D210148024B984708BD00120E40F7
:10246000D923080008B50E210148024B984708BD42
:1024700000140E40D92308004FF44412034BDA61D4
:102480001A46936E13F0400FFBD0704700060E40C3
:1024900000F07F00054BC3F80C01D3F80C2142F08B
:1024A0001022C3F80C210020704700BF00060E4028
:1024B000000200F4706040F00100014B9863704727
:1024C00000060E402022014B1A60704700060E40A5
:1024D000034B1A6FC0F3120010431867704700BF18
:1024E00000060E40024B187880F00100704700BFD4
:1024F000B80D0720FEE7704708B51C4B1C4A9A42EE
:1025000010D01C4B194A9A420CD2013B9B1A23F063
:10251000030304331344164951F8040B42F8040B27
:102520009A42F9D1144B154A9A420AD2013B9B1A9E
:1025300023F0030304331344002142F8041B9342A5
:10254000FBD10F4B23F0604222F07F020D498A60DD
:1025500003F16043B3F5801F03D28B6843F000534F
:102560008B60094B9847094B9847FEE7000007200E
:10257000CC720800800B0720400E0720800B07203C
:102580000000080000ED00E009270800952608007B
:102590000A4B1B6853B1094B1B681A180849914232
:1025A00008DB1046054A106018467047054A034B81
:1025B0001A60F0E74FF0FF30704700BFBC0D0720F6
:1025C000FC7F0820402E072070B50D1E07DD044655
:1025D0000544034E14F8010BB047AC42FAD170BD6C
:1025E0003507080008B500210548064B984710F04C
:1025F000100F03D0044A13880133138008BD00BFB5
:1026000000000840B50D0800C00D072010B51B20C4
:102610000D4B98470D4C4CF20102002120460C4B0B
:1026200098470C4A002120460B4B98471022002166
:1026300020460A4B98474FF00062094B1A60002170
:102640002046084B984710BD912408000000084020
:10265000850D0800D01B5000A50D0800AD0D080029
:1026600000E100E09D0D080010B582B00E20064B81
:1026700098470123009300231A464FF480710348C2
:10268000034CA04702B010BD9124080000140E4076
:102690003D22080070B5A0B0114B9847114B9847E8
:1026A000114B9847114B98476C46114D0FCD0FC4F5
:1026B0002B6824F8023B1B0C2370122168460D4B3B
:1026C00098470D4B98470D4E0D4D0E4C33882A46BA
:1026D00080216846A04701466846064B9847F5E7C3
:1026E000010007204D210800E108080069260800C4
:1026F000EC6F0800C92508000D260800C00D072052
:1027000000700800E128080070B50F4E0F4D761BD1
:10271000B61018BF002405D0013455F8043B984783
:10272000A642F9D10A4E0B4D04F0BAFD761BB61045
:1027300018BF002406D0013455F8043B9847A64240
:10274000F9D170BD70BD00BFAC720800AC7208005A
:10275000B4720800AC720800844641EA000313F02A
:10276000030349D1403A23D30B6803604B684360AD
:102770008B688360CB68C3600B6903614B694361FD
:102780008B698361CB69C3610B6A03624B6A4362E5
:102790008B6A8362CB6AC3620B6B03634B6B4363CD
:1027A0008B6B8363CB6BC36340304031403ADBD2E9
:1027B00030320BD30B6803604B6843608B688360D7
:1027C000CB68C36010301031103AF3D20C3205D30D
:1027D00051F8043B40F8043B043AF9D2043208D0E3
:1027E000D2071CBF11F8013B00F8013B01D30B8855
:1027F00003806046704700BF082A13D38B07B1D00F
:1028000010F00303AED0C3F10403D21ADB071CBFE0
:1028100011F8013B00F8013BA4D331F8023B20F84A
:10282000023B9FE7043AD9D3013A11F8013B00F883
:10283000013BF9D20B7803704B7843708B7883702F
:102840006046704770B4860746D0541E002A41D0B7
:10285000CAB2034602E014F1FF343BD303F8012B64
:102860009D07F8D1032C2ED9CDB245EA05250F2CB2
:1028700045EA054519D9264603F11002103E0F2EF0
:1028800042F8105C42F80C5C42F8085C42F8045CC8
:1028900002F11002F2D8A4F1100222F00F0204F0AB
:1028A0000F041032032C13440DD91E462246043A5D
:1028B000032A46F8045BFAD8221F22F003020432EE
:1028C000134404F003042CB1C9B21C4403F8011BE7
:1028D0009C42FBD170BC704714460346C2E700BF60
:1028E0000CB4F0B5224B0C1E9DB01D683BDB4FF4C1
:1028F000027302900690ADF814304FF6FF7723AEC6
:1029000015D0013C229A334602A928460494079424
:10291000ADF81670019600F05BF8421C19DB00223E
:10292000029B1A701DB0BDE8F04002B070473346FC
:10293000229A02A9284604940794ADF816700196CD
:1029400000F046F8431C07DB1DB0BDE8F04002B0C4
:1029500070478B232B60E2E78B232B601DB0BDE813
:10296000F04002B070478B234FF0FF302B60EBE755
:10297000D401072020F0030110F00300C0F1000093
:1029800051F8043B00F1040C4FEACC0C6FF000024C
:102990001CBF22FA0CF213434FF0010C4CEA0C2C32
:1029A0004CEA0C4CA3EB0C0222EA030212EACC1212
:1029B00004BF51F8043B0430F4D0C2F1000102EA34
:1029C0000102B2FA82F2C2F11F0200EBD20070479C
:1029D0002DE9F04FC3B00C460B9192460F930C902B
:1029E00002F08CFB036818461A93FFF7C3FFA38914
:1029F0001990190603D52369002B01F035800023B7
:102A00000DF1C809C84615931393149318931B939B
:102A100009931693179327932693CDF894909AF8D9
:102A200000305446EBB1252B02D11AE0252B03D000
:102A300014F8013F002BF9D1A4EB0A058DB1269BB8
:102A4000279A01332A44072BC8F800A0C8F804507D
:102A50002792269300F38A8008F10808099B2B44EB
:102A600009932378002B00F0898000234FF0FF307A
:102A70001A468DF8773019460D939B46637804F11A
:102A8000010A0A900AF1010AA3F12000582800F275
:102A9000B783DFE810F04C03B503B5035403B50367
:102AA000B503B503B503B503B50359005903B50321
:102AB00066001402B5032F02A503A503A503A50311
:102AC000A503A503A503A503A503B503B503B50396
:102AD000B503B503B503B503B503B503B5038B0261
:102AE000D302B503D302B503B503B503B5031B0386
:102AF000B503B5032003B503B503B503B503B503AB
:102B00003402B503B5034B02B503B503B503B503F2
:102B1000B503B503B503B503B503B50376029E034C
:102B2000D302D302D30263039E03B503B503680344
:102B3000B5037503DD018C035E03B503F201B50334
:102B40008700B503B50332030F9C236818460D9325
:102B50002346002803F104030F9304DA0D9B5B4224
:102B60000D934BF0040B9AF800308BE725AA0B99D4
:102B70000C9803F007FB40B9C8466FE7279B23B1C9
:102B80000C9825AA0B9903F0FDFA0B9B9B8913F077
:102B9000400F099B18BF4FF0FF330993099843B0CA
:102BA000BDE8F08F1BF0200F119340F0AF810F9A1A
:102BB0001BF0100F134640F09A851BF0400F00F0F9
:102BC000968500250123148804320F9200221746AF
:102BD0008DF877200A994A1C00F010822BF08002B1
:102BE000079254EA050240F00F82002940F0318438
:102BF000002B40F039851BF001030E9300F0628634
:102C0000302342AE06F8413D0A9B0E9A9342B8BF6C
:102C1000134608930023129317B1089B01330893BE
:102C2000079B13F00203109302D0089B0233089312
:102C3000079B13F0840540F010830D9B089AA3EBCB
:102C4000020BBBF1000F40F30883BBF1100F40F300
:102C5000B287279C43462146A8461027269A0C9CFB
:102C60000B9D06E0ABF1100BBBF1100F03F1080355
:102C700018DD0132AB481031072A2791269283E8EC
:102C80008100EFDD25AA2946204603F07BFA0028C3
:102C90007FF47BAFABF1100BBBF1100F4B462799C4
:102CA000269AE6DC45460C46984601329D4B5C442C
:102CB000072A2794269288E8080800F3C3829DF823
:102CC000777008F1080887B10121269B0C440B445A
:102CD0000DF17702072B27942693C8F80410C8F843
:102CE000002000F3CD8308F10808109B7BB102217E
:102CF000269B0C4401331EAA072B27942693C8F861
:102D00000410C8F8002000F3118408F10808802D91
:102D100000F004830A9B0E9A9F1A002F37DD102FB4
:102D200040F37986804D42462146B0464FF0100B65
:102D30002E46269B0C9C0B9D04E0103F102F02F1A9
:102D4000080215DD01331031072B2791269382E805
:102D50004008F2DD25AA2946204603F013FA002890
:102D60007FF413AF103F102F4A462799269BE9DCCA
:102D700035460C464646904601333C44072B279483
:102D8000269388E8A00000F3708308F10808079BE9
:102D9000DF0500F16482269B0E9901330C44072B5A
:102DA0002794C8F80060C8F80410269300F3B38392
:102DB00008F10808079B5B073BD50D9B089A9D1AF5
:102DC000002D36DD102D40F321871026269B0C9F09
:102DD000DDF82CB004E0103D102D08F1080816DDD8
:102DE0000133504A1034072B2794269388E8440077
:102DF000F1DD25AA5946384603F0C4F900287FF4CE
:102E0000C4AE103D102DC846279C269BE8DC01333C
:102E1000444A2C44072B2794269388E8240008DD95
:102E200025AA0B990C9803F0ADF900287FF4ADAEFC
:102E3000279C099B0D9A08998A42ACBF9B185B1886
:102E40000993002C40F0FB820023C8462693E6E558
:102E500011931BF0200340F045811BF0100240F05D
:102E600066841BF0400300F062840F9913460A4603
:102E700004320C8800250F92A8E600250F9A1193C2
:102E800016688DF87750141D002E00F0CD860A9A32
:102E9000531C00F01B862946304602F0F9FB00283F
:102EA00000F00D87831B0A950E930F94CDF81CB08C
:102EB00023EAE373089312959DF87770ACE69AF8CD
:102EC00000300AF101042A2B00F0C287A3F1300080
:102ED0000928A24600F2188700231C461AF8013B75
:102EE00004EB840400EB4404A3F130000928F5D975
:102EF0000A94C9E54BF0800B9AF80030C2E54BF01C
:102F0000100B1BF0200F11933FF451AE0F9C0734B0
:102F100024F0070303F10802D3E900450F920123CF
:102F200054E600BF60700800707008001193002A1A
:102F300040F0AD87BE4B1BF0200F189340F0E780A8
:102F40000F9A1BF0100F134640F0D8831BF0400F70
:102F500000F0D4830025043314880F931BF0010F75
:102F600000F0E38054EA050300F0DF8030239DF891
:102F700044208DF878308DF879204BF0020B022335
:102F800024E601221193002311460F98089202684B
:102F90001F468DF877300A931293031DCDF81CB0AD
:102FA0000E918DF8A0200F9328AE39E61193002AD8
:102FB00040F084874BF0100B1BF0200F40F075841D
:102FC0000F9A1BF0100F134640F09D831BF0400F2B
:102FD00000F09983B2F900400433E5170F932246BD
:102FE0002B46002A73F10003C0F298830A999DF8DA
:102FF00077704A1C4FF001037FF4F0AD54EA0502EC
:1030000000F02982CDF81CB0012B00F00E83022BBA
:1030100040F09C824E461898230943EA057329091B
:1030200004F00F020D461C46835C06F8013D54EA8D
:103030000503F1D1A9EB06030E93E5E51193002AF0
:1030400040F038870F9C1BF0080F04F1070400F0D4
:10305000CF8424F0070303F108020F921A685B681B
:1030600015921493149B159D23F000442846214685
:103070004FF0FF326F4B03F0F3FD002840F0348433
:10308000284621464FF0FF326A4B03F0CBFD002863
:1030900040F02A8415A80DC8149903F0B9FD002842
:1030A00040F0D4859DF8777003231A4608930023D7
:1030B000614E19460A93614B0E92119A2BF08000D3
:1030C00007901291472AD8BF1E46A5E54BF0080B82
:1030D0009AF80030D6E44BF0100B11931BF020034C
:1030E0003FF4BBAE0F9C073424F0070303F1080242
:1030F000D3E900450F92002368E51193002A40F0C0
:10310000C2864F4B1BF0200F18933FF419AF0F9C52
:103110001BF0010F04F1070424F0070303F1080278
:103120000F92D3E900457FF41DAF02234EE59AF8D4
:10313000003000297FF4A6AC01222021A2E44BF04C
:10314000010B9AF800309DE49AF8003001222B21FF
:1031500098E44BF0200B9AF8003093E44BF0400BCE
:103160009AF800308EE49AF800306C2B03BF9AF87E
:1031700001304BF0200B0AF1010A4BF0100B81E4F7
:10318000002A40F07C861BF0200F40F052841BF098
:10319000100F40F038841BF0400F00F034840F9A79
:1031A000136804320F92BDF824201A8037E4782384
:1031B00030220F988DF879301193031D0F93204B17
:1031C000046818934BF0020B8DF878200025022339
:1031D000FCE41193002A3FF4EFAE8DF87710EBE694
:1031E00000200446A3F130001AF8013B04EB8404EC
:1031F00000EB4404A3F130000928F5D90D9443E411
:103200001193002A40F04A86119A002A3FF4B6AC86
:10321000002301211F4608918DF8A020CDF81CB095
:103220008DF877300A9312930E9128AEF8E400BF20
:103230002C700800FFFFEF7F207008001C70080052
:103240004070080025AA0B990C9802F09BFF0028FB
:103250007FF49BACC8469DF87770279C33E5119BA3
:10326000652B40F39A8015A80DC8149903F0C6FC8D
:10327000002800F093810121269BB54A0B440C44A1
:10328000072B27942693C8F80410C8F8002000F3F1
:10329000C68308F108081F9B139A279C934203DBFF
:1032A000079BDD077FF586AD269B199901331A9A96
:1032B0000C44072BC8F80020C8F804102794269364
:1032C00000F3C48308F10808139B5E1E002E7FF7ED
:1032D00071AD102E40F3758522461027269B9D4D1B
:1032E000DDF830B00B9C05E008F10808103E102E08
:1032F00040F3258201331032072B2792269388E86A
:10330000A000F1DD25AA2146584602F03BFF002827
:103310007FF43BACC846279A269BE7E70D9B089AAB
:103320009F1A002F7FF7F6AC102F40F3A884894D29
:1033300042462146B0464FF0100B2E46269B0C9C71
:103340000B9D04E0103F102F02F1080215DD013340
:103350001031072B2791269382E84008F2DD25AA39
:103360002946204602F00EFF00287FF40EAC103FE5
:10337000102F4A462799269BE9DC35460C464646DF
:10338000904601333C44072B2794269388E8A000FD
:1033900000F39E8208F10808BCE4139B012B40F364
:1033A0004F820123269F1C441F44072F2794C8F8EF
:1033B00000602697C8F8043000F35F8208F108081F
:1033C000199A01371A9B1444072F27942697C8F897
:1033D0000030C8F8042000F35C8208F1080815A842
:1033E0000DC8149903F00AFC139B002840F041819A
:1033F000013B013701361C44072FC8F800602697AF
:103400002794C8F8043000F3668108F108081B9A75
:103410000137144421AB072F27942697C8F80420BE
:10342000C8F800307FF7C4AC25AA0B990C9802F0BD
:10343000A9FE00287FF4A9ABC846279CBAE425AAB8
:103440000B990C9802F09EFE00283FF4FDACFFF7AC
:103450009CBBDDF81CB0012B00F07E81022B71D1EA
:10346000CDF81CB000240025D4E525AA0B990C98B2
:1034700002F088FE00287FF488ABC846279C86E4CB
:1034800025AA0B990C9802F07DFE00287FF47DABF5
:10349000C846279C29E40120269B2D4A0344044466
:1034A000072B27942693C8F80400C8F8002040F39F
:1034B000D88225AA0B990C9802F064FE00287FF4AC
:1034C00064ABC8461F99279C29B9139B1BB9079B5E
:1034D000D8077FF56FAC1998269B0246013322442A
:1034E0001A9C072B2792C8F80040C8F804002693BE
:1034F00000F3318408F108080029C0F20984139907
:1035000001338C18072B27942693C8F80060C8F85D
:1035100004107FF74DAC25AA0B990C9802F032FEEF
:1035200000287FF432AB279CC84643E425AA0B99B8
:103530000C9802F027FE00287FF427ABC846279C92
:10354000FFF7E5BB00240025CDF81CB0494604E098
:103550005C700800707008003146E20842EA45726B
:10356000E80804F0070305461446303354EA050220
:1035700001F8013C01F1FF36EED1079AD2077FF541
:1035800059AD302B3FF456AD3023023906F8013CDB
:10359000A9EB01030E930E46FFF736BB1F990029D6
:1035A0007FF779AF129B139A9342A8BF1346002B63
:1035B0001F460BDD269B3C440133072B279488E8EC
:1035C000C000269300F3FB8208F10808129B002F2D
:1035D000A8BFDB1B002B1F4640F3D780102B40F306
:1035E0003484BA4D42462146B0464FF0100B2E4669
:1035F000269B0C9C0B9D04E00832103F102F40F3DB
:10360000B58001331031072B2791269382E84008BB
:10361000F2DD25AA2946204602F0B4FD00287FF4F9
:10362000B4AA4A462799269BE7E7002D08BF0A2C33
:10363000C0F090804E46204629460A22002303F01F
:103640004DFB303206F8012D2046294600230A2280
:1036500003F044FB04460D4654EA0503EBD1A9EB05
:1036600006030E93FFF7D0BA0A9B4E460E93FFF760
:10367000CBBA5E1E002E7FF7CAAE102E40F3E38356
:1036800022464FF0100B914D0C9C04E0103E102E82
:1036900008F1080815DD01371032072F2792269709
:1036A00088E82008F2DD25AA0B99204602F06AFD81
:1036B00000287FF46AAA103E102EC846279A269F3B
:1036C000E9DC144601373444072F2794269788E80D
:1036D00060007FF79AAE25AA0B990C9802F052FD74
:1036E00000287FF452AA279C269FC8468FE6043202
:1036F0001C68002501230F92FFF768BA1C68043389
:103700000F9300252AE41C680433E51722460F9323
:103710002B46002A73F10003BFF668AC2D276442E4
:1037200065EB45058DF877700123FFF753BA0F99C4
:1037300000250A4604320C680F92FFF747BA144678
:1037400001333444072B2794269388E860007FF7E1
:103750002FABE0E6DDF81CB0012342AE3034CDF8EB
:103760001CB006F8414D0E93FFF74EBA35460C4695
:103770004646904601333C44072B2794269388E81D
:10378000A00000F3468208F108081F9A139B9A4292
:1037900045DB079BD90742D4139B12989A1A1D1A2E
:1037A0009542A8BF1546002D0EDD2699064401312D
:1037B0002C440729C8F800602794C8F804502691C3
:1037C00000F3168208F10808002DB4BF1646561BF8
:1037D000002E7FF7EFAA102E40F3F3822246102727
:1037E000269B3A4DDDF830B00B9C04E008F1080848
:1037F000103E102EA3DD01331032072B27922693A3
:1038000088E8A000F2DD25AA2146584602F0BAFC5D
:1038100000287FF4BAA9C846279A269BE8E7269B8A
:10382000199801331A990444072B2794C8F80010FB
:10383000C8F80400269300F3CF8108F10808ABE72D
:10384000079BDA073FF5ADAD0123269F1C441F44BB
:10385000072F2794C8F800602697C8F804307FF730
:10386000D4AD25AA0B990C9802F08CFC00287FF4AB
:103870008CA9C846279C269FC9E525AA0B990C98B8
:1038800002F080FC00287FF480A9C846279C269F70
:1038900096E525AA0B990C9802F074FC00287FF499
:1038A00074A9C846279C269F99E50F9C073424F0ED
:1038B000070404F10801D4E900230F9114461D46C2
:1038C000FFF78FBB4E46FFF79FB900BF707008002F
:1038D00025AA0B990C9802F055FC00287FF455A9F5
:1038E000C846279CFFF716BA159C22462046149C12
:1038F0002346214603F0B4F9002840F073820A9B66
:103900000133119B23F020030E9300F09C81472B81
:1039100000F0D6804BF480730793149B1F1E159BF9
:103920000893B7BF3B46002303F100472D231093B4
:10393000119B662B00F09081462B00F0A4800220A2
:103940000E9B23A9452B0ABF0A9B0A9D5D1C8DE88F
:103950002100049120A81FA93B460390089A0291D8
:103960000C9800F059FB119B0646672B40F0BA817A
:103970001BF0010F00F023827419169A0898179B08
:10398000394603F03BF9002840F02481239BA342F1
:1039900006D230215A1C23921970239B9C42F9D8DD
:1039A0009B1B13930E9B472B00F0A280119B652B52
:1039B00040F3A781119B662B1F9B129300F071812E
:1039C000139B129A1946914200F35D811BF0010F7F
:1039D00040F0F08122EAE273089367230E9211937C
:1039E000109B002B7DD10A939DF87770FFF714B9D7
:1039F00024F00704236815936368149304F1080303
:103A00000F93FFF72FBB0F9A136804320F92099A96
:103A10001A60FFF704B8269BAF4DFFF7ADB925AA92
:103A20000B990C9802F0AEFB00287FF4AEA8C846B4
:103A300031E40F9A134604330F93099B1168DD1785
:103A40001A462B46C1E90023FEF7E9BF25AA0B99C8
:103A50000C9802F097FB00287FF497A8C846279C93
:103A600032E408F108082FE540210C9801F058FBDA
:103A70000B9A10601061002800F0148240230B9A0A
:103A80005361FEF7BCBF03200A9C23A98DE81100F7
:103A9000049120A81FA90390089A3B4602910C9814
:103AA00000F0BAFA25460646119B7419462B7FF49E
:103AB00064AF3378302B00F087811F9D2C445CE786
:103AC0000A9B002B08BF01230A9323E730460A957F
:103AD000FEF750FF0F940E90CDF81CB00346FFF791
:103AE000E7B92D2700238DF877700A93FFF795B873
:103AF0001F9B1A461293033304DB0A9B194691421B
:103B0000BFF65EAF119B023B1193129B9DF84420C0
:103B1000013B002B8DF88420B4BF2D222B221F9354
:103B2000B8BF129B8DF88520B8BFC3F10103092BE4
:103B300040F31F810DF193000146684C00E01146EF
:103B400084FB0352DD17C5EBA20505EB8502A3EB51
:103B500042023032092D01F8012C2B4601F1FF32CF
:103B6000EDDC30330239DCB2884202F8014C40F21D
:103B700092810DF18601134601E013F8014B834257
:103B800001F8014BF9D101339B1A0DF18602134460
:103B900021AA9B1A139A1B93012A13440E9340F3F4
:103BA00048810E9B199A13440E9323EAE3730893FA
:103BB0000023129314E7279C269AFFF776B825AACC
:103BC0000B990C9802F0DEFA00287EF4DEAFC846AE
:103BD000279CFBE42346E3E625AA0B990C9802F008
:103BE000D1FA00287EF4D1AFC8461F9A279CD3E5AE
:103BF00025AA0B990C9802F0C5FA00287EF4C5AFEF
:103C00001F9A139BC846279C9A1ADDE5269BFFF74F
:103C1000FEB825AA0B990C9802F0B4FA00287EF49D
:103C2000B4AFC846279CB0E50A9B3746062B28BF91
:103C300006230A96129608930F94CDF81CB00E93A3
:103C4000274EFEF7E9BF06230A9363E62D231F469E
:103C50008DF87730FFF728BA03200A9C23A98DE856
:103C60001100049120A81FA90390089A3B460291D5
:103C70000C9800F0D1F925460646041919E7269B51
:103C8000154DFFF77EBB199A139B1344129A0E939E
:103C9000002A40F3C78023EAE37308936723119354
:103CA0009EE6002B40F3E1800A9A002A40F0B080A3
:103CB0001BF0010F40F0AC8008930E9390E60A9B36
:103CC0000F9408930E930A90CDF81CB012909DF8B3
:103CD0007770FEF7A1BF00BF707008006766666668
:103CE00054700800119B472B7FF446AE1BF0010F68
:103CF0007FF4DAAE239B9B1B13930E9B472B3FF461
:103D0000F7AE1F9B129300E700200A90FEF7BCBE9F
:103D10004F42103135DA10246A4DDDF830B004E03E
:103D200008F10808103F102F2CDD01331032072B4B
:103D300027922693C8F80050C8F80440F0DD25AA61
:103D40000B99584602F01EFA00287EF41EAFC846B2
:103D5000279A269BE6E725AA0B990C9802F012FAFF
:103D600000287EF412AFC8461F99279A269BFFF7BA
:103D7000C3BB302213448DF887308DF8862022ABE8
:103D800006E7504D01333A44072B88E8A0002792FC
:103D9000269308F108087FF7B2AB25AA0B990C9877
:103DA00002F0F0F900287EF4F0AEC846279A269B70
:103DB000FFF7A5BB129B199A13440E936BE7239B45
:103DC000EEE5269B3F4DBBE4169A0898179B3946B3
:103DD00002F014FF00287FF470AEC5F101051F95B5
:103DE0002C44CAE5149B384E002BBEBF2D231F4622
:103DF0008DF877304FF003031A4608934FF0000315
:103E0000A8BF9DF8777019460A93304BFFF754B955
:103E1000129B199A13440A9A1A4422EAE2730E92E8
:103E20000893DDE5129B0E9AC3F101031A44134671
:103E3000C3E71BF0010312937FF4B3AE0E9B23EA9A
:103E4000E3730893CCE51F4D3CE4269B1D4D91E4A4
:103E50000F9D9AF801302868A24640EAE0700A9067
:103E6000284604300F90FEF70DBE0A9B13B91BF0D5
:103E7000010F02D0199B0133CDE701231CE78DF818
:103E80007710FFF780B98DF87710FFF73AB98DF802
:103E90007710FFF74FB80DF1860379E68DF87710AC
:103EA000FFF7B2B94FF0FF320C2309920C9A13605E
:103EB000FEF774BE8DF87710FFF7C4B88DF8771051
:103EC000FFF778B8707008002870080024700800A8
:103ED000024B13B1024800F005B870470000000023
:103EE0005D4E0800002301461A46184602F0D4B978
:103EF0002DE9F04F03690F6983B09F4200F388807A
:103F0000013F01F1140600F1140A56F827305AF85F
:103F100027200133B2FBF3F8BB00009306EB030943
:103F200053440193B8F1000F3BD00023B4461C4624
:103F3000D6465CF8042BDEF800501FFA82FB08FB23
:103F40000B33120C4FEA134B08FB02BB9AB2A21AB6
:103F5000ABB21FFA8BF41A44C4EB154404EB2244B1
:103F600092B242EA0442E1454EF8042B4FEA24445F
:103F70004FEA1B43DDD2009B5AF803308BB9019CFA
:103F8000231F9A450CD254F8043C4BB9A4F1080302
:103F900002E01A68043B1AB99A4507F1FF37F8D3D3
:103FA0000761044601F028FE00282DDB554600235A
:103FB00008F1010856F8041B28688AB29A1A0B0CFB
:103FC00081B20A44C3EB104303EB224392B242EAAC
:103FD0000342B14545F8042B4FEA2343EAD25AF88D
:103FE00027200AEB87037AB91A1F92450BD253F8A0
:103FF000042C42B9083B02E01A68043B1AB99A45FE
:1040000007F1FF37F8D32761404603B0BDE8F08FD2
:10401000002003B0BDE8F08F2DE9F04F056C9BB098
:10402000044692469B46279E4DB10123426C294689
:104030009340AB606A6001F007FC00232364BBF18E
:10404000000F5D4635DB002333609D4BAB4315D03D
:10405000002200235046594602F0D0FD8046002839
:104060002DD00123269A1360289B002B00F0BD80E1
:104070009448186001381BB0BDE8F08F42F20F730E
:10408000269A1360BAF1000F0DD1C5F3130555B987
:10409000289B8D48002BEED000F10803289A13606E
:1040A0001BB0BDE8F08F289B8848002BE3D0C31CD1
:1040B000F4E701232BF000453360AB46C5E718AAAF
:1040C00019AB0192009352465B46204601F03EFE3A
:1040D0002B0D814671D05046CBF3130242F07F5135
:1040E000189FA3F2FF36CDF8508041F44011002212
:1040F000774B02F067F96CA3D3E9002302F016FBBB
:104100006BA3D3E9002302F05FF9CDE90201304649
:1041100002F0A6FA68A3D3E9002302F007FB0246E7
:104120000B46DDE9020102F04FF9CDE9040102F08E
:10413000ADFD002202900023DDE9040102F068FDDC
:10414000002840F06D81029D162D00F257816149D3
:10415000524601EBC5015B46D1E9000102F076FD54
:10416000002800F0BE816B1E029300230E93BF1B3C
:104170007B1E089300F14E8100230A93029B002BC3
:10418000C0F23F81089A0D9311461944002308910B
:104190000C93249B092B2AD8052B40F35886002525
:1041A000043B2493249B023B032B00F23F86DFE871
:1041B00013F0CE03C302D9035B04189F199E3E443B
:1041C00006F23243202B40F38781C3F1400306F20D
:1041D00012409D402AFA00F0284302F031FA0123F0
:1041E000013E1493A1F1F87181E73B4843E70021B8
:1041F00020466164259101F001FB4FF0FF330793E6
:104200000F930123259A0490206424920B93199B09
:10421000002BC0F2D380029A0E2A00F3CF802D4BE0
:1042200003EBC203D3E90023CDE90823259B002B30
:10423000C0F2B483DDE9085650462A463346594653
:1042400002F09EFB02F022FD804602F009FA2A46A7
:10425000334602F06BFA02460B465046594602F0CE
:10426000B1F8079E049F08F13005012E3D7002460B
:104270000B4607F1010564D00022184B02F056FAF4
:104280000022002306460F4602F0B8FC002840F04A
:104290008280CDF828904FF0000ADDE908894FF0C0
:1042A000000B0B9429E000BF61436F63A787D23FE7
:1042B000B3C8608B288AC63FFB799F501344D33F15
:1042C0000000F07F5D700800807008008C700800AE
:1042D0000000F83FC87008005C700800000024402F
:1042E0000022814B02F022FA52465B4606460F46F8
:1042F00002F084FC002840F0BA8342464B46304628
:10430000394602F03DFB02F0C1FC044602F0A8F978
:1043100042464B4602F00AFA02460B463046394600
:1043200002F050F804F1300605F8016B049E079F77
:10433000AE1BBE4202460B46D2D1A046DDF8289005
:104340000B9C1046194602F03FF806460F460246FF
:104350000B46DDE9080102F05BFC48B9DDE9080124
:1043600032463B4602F04AFCA8B118F0010F12D0C9
:1043700015F8018C6B1E049A04E09A4200F0028446
:1043800013F8018DB8F1390F03F10105F5D008F1EB
:10439000010883F800804946204601F055FA0022C2
:1043A000029B2A70269A01331360289B002B00F091
:1043B0009F8304981D601BB0BDE8F08F0B9A002A04
:1043C0003ED0249A012A40F31183079B0C9A5F1E6A
:1043D000BA42C0F29083D71B079B002BC0F28C849B
:1043E0000A9D079B0A9A01211A440A92089A2046BC
:1043F0001A44089201F0C4FA064623E001230E9302
:10440000B5E600230A9A0D93029BD21A5B420A92E8
:104410000C93BEE6C7F101030A9300230893ADE6AF
:10442000029D284602F01CF902460B46DDE9040114
:1044300002F0E4FB00287FF486AE6B1E029382E656
:104440000AADE0CD002D0CDD089900290B4608DDF2
:10445000A942A8BF2B460A9AED1AD21ACB1A0A9281
:1044600008930C9BD3B10B9B002B00F0B882002F5C
:1044700010DD31463A46204601F01EFB4A46014611
:104480000646204601F086FA0346494620469946EC
:1044900001F0DAF90C9BDA1B40F0A28201212046E0
:1044A00001F06EFA0D9B8046002B1FDD01461A4677
:1044B000204601F001FB249B8046012B40F35582EE
:1044C00000230C93D8F8103008EB8303186901F02F
:1044D00007FAC0F1200013E0C3F120050AFA05F045
:1044E0007BE60E9043E600BF00002440249B012B96
:1044F00040F3858200230C930D9B0120002BE1D11A
:10450000089A104410F01F0000F0A180C0F12003B1
:10451000042B40F386840A9BC0F11C0003440A93D9
:1045200013460344054408930A9B002B05DD4946C6
:104530001A46204601F010FB8146089B002B05DD42
:1045400041461A46204601F007FB80460E9B002B91
:1045500040F08680079B002B40F364820B9B002B6E
:1045600000F09880002D05DD31462A46204601F0F6
:10457000F3FA06460C9B002B40F036830896079B07
:10458000049A013BD3180B9317460AF00103C24665
:10459000DDF820B00C9351464846FFF7A9FC3146A0
:1045A0000546484601F028FB5A46079051462046EA
:1045B00001F03EFBC268804605F13003002A40F05E
:1045C0002982014648460A9301F016FB41460890AD
:1045D000204601F039F9089A0A9B32B9249921B989
:1045E0000C9A002A00F0EE83249A07990029C0F261
:1045F0009F8205D1249919B90C99002900F098825D
:10460000002A00F305830B9A07F1010897423B70DB
:10461000454600F00B83494600230A22204601F05C
:104620001DF95E45814631464FF000034FF00A0206
:10463000204600F0E98101F011F9594606460023B1
:104640000A22204601F00AF947468346A3E71C20C8
:104650000A9B054403440A93089B0344089363E7B9
:104660004146484601F0C8FA0028BFF673AF029FE2
:10467000494600230A222046013F029701F0EEF846
:104680000B9B8146002B40F0B5830F9B002B40F322
:10469000BE830793DDF810A0079F554606E0494604
:1046A00000230A22204601F0D9F8814641464846B7
:1046B000FFF71EFC303005F8010BA5EB0A03BB42E7
:1046C000EDDB049B079A8246012AACBF9B1801339D
:1046D0004FF0000B1D4649460122204601F03CFAEE
:1046E0004146814601F088FA002840F33F8215F8E0
:1046F000012C6B1E049904E08B4200F0AE8113F88C
:10470000012D392A03F10105F6D001321A70414614
:10471000204601F099F8002E3FF43DAEBBF1000FAA
:1047200005D0B34503D05946204601F08DF83146F7
:10473000204601F089F82EE600230B93029B259A70
:1047400013440F930133012B1F461E46B8BF0127A8
:1047500007930021172F61640AD9012204235B000B
:1047600003F114008742114602F10102F7D261649D
:10477000204601F043F80E2E049020643FF647AD2A
:10478000002D3FF444AD0299CDE910AB002940F370
:104790000382B94B01F00F020D1103EBC203E906CE
:1047A000D3E9006740F1AF81B44B5046D3E9082309
:1047B000594602F0E5F84FF0030ACDE9120105F081
:1047C0000F058DB1DFF8B482EA0709D5D8E90023D7
:1047D0003046394601F0AAFF06460F460AF1010AA3
:1047E0006D1008F10808EFD13B46DDE912013246B1
:1047F00002F0C6F8074688460E9B43B10022A04B44
:104800003846414602F004FA002840F087825046BC
:1048100001F026FF3A46434601F088FF994B0022FB
:1048200001F0D2FD079B0546A1F15076002B00F068
:104830003F81029B1593079B12930B9B002B00F06B
:10484000FB81129A8C4B002003EBC20353E9022335
:104850008D4902F095F82A46334601F0B3FD8246B1
:104860008B463846414602F011FA054601F0F8FE43
:1048700002460B463846414601F0A4FD30355FFA4A
:1048800085F8049D06460F4685F8008002460B46D3
:1048900050465946013502F0D9F9002854D1324624
:1048A0003B460020764901F08DFD02460B465046FE
:1048B000594602F0CBF9002840F07082129A012A82
:1048C00000F01281129B049ACDF848901344994647
:1048D0000FE032463B460020694901F073FD524625
:1048E0005B4602F095F9002840F056824D4500F0F5
:1048F000F980504659460022644B01F017FF002210
:10490000624B82468B463046394601F00FFF0F4618
:10491000064602F0BBF9804601F0A2FE02460B46B5
:104920003046394601F04EFD08F130085FFA88F84C
:1049300005F8018B52465B4606460F4602F068F9C1
:104940000028C6D0DDF84890159B029323E500238C
:104950000B93259B002B40F3DD801F461E460F93D3
:104960000793F6E601230B93F3E7BAF1000F7FF408
:10497000A7ADCBF31303002B7FF4BCAD2BF00047A6
:104980003F0D3F05002F00F00D820A9B01330A9373
:10499000089B0133089301230C93ADE5079B002B83
:1049A0003FF748AC40F02282DDE908010022384B95
:1049B00001F0BCFE52465B4602F03EF9DDF81C8079
:1049C0004646002841D0259B049DDB430293414687
:1049D000204600F039FF002E3FF4DDACA7E60C9A2C
:1049E0004946204601F068F8814657E5149A002AA6
:1049F00000F0888103F233430C9F0A9DF2E4BAF180
:104A0000000F7FF477ADB4E700F028FF4746064675
:104A10008346C0E501462046089300F015FF0122B9
:104A2000089BE2E5249B022B7FF798AD079B002BA8
:104A3000C9D141460522204600F010FF01468046BC
:104A4000484601F0D9F80028BDDD3123029A0499C7
:104A5000013202920B704D1CB9E73123029A0132E8
:104A60000292049A137052E601230B9366E6DDF876
:104A700028900B9C8FE400BFC8700800A07008004D
:104A80000000F03F00001C400000E03F0000244018
:104A900000001440504601F0E3FD3A46434601F061
:104AA00045FE0022C14B01F08FFC0546A1F1507676
:104AB00041460022BE4B384601F084FC2A4633466C
:104AC00082468B4602F0C2F88046002840F01081F2
:104AD0002A4606F100435046594602F099F818B1AB
:104AE000464670E7DDF84890DDE910ABFFF78FBB75
:104AF0000498FFF7C0BA0C9B0D9AFB1A1A440C9746
:104B00000D92002768E4DDE910234FF0020ACDE999
:104B1000122356E60021012320466164259300F00C
:104B20006DFE259B04900793259B20640F9327E639
:104B3000002AD046CDF820B09A4611DD4946012220
:104B4000204601F009F84146814601F055F8002859
:104B500040F34581BAF1390F00F0058105F1310AC2
:104B6000B34687F800A07D1C089ED0E504D11AF05A
:104B7000010F01D0BBE5154615F8013C6A1E302B2C
:104B8000F9D0C4E5302204990A70029A15F8018C14
:104B900001320292FFF7FBBB00F0BB80DDE91001A0
:104BA000029B4FF0020A5D42824B05F00F0203EBBD
:104BB000C203D3E9002301F0B9FD2D110746884651
:104BC0003FF41AAE7C4EEB0709D5D6E900233846F0
:104BD000414601F0ABFD074688460AF1010A6D1017
:104BE00006F10806EFD107E67168204600F006FEE0
:104BF0000546336906F10C0102339A000C30FDF7CB
:104C0000ABFD29460122204600F0A6FF0890B6E43D
:104C1000392BCDF820B0D04600F0A58003F1010A71
:104C2000B34687F800A07D1C089E70E55A46D04622
:104C3000B3469A4616464EE512985E492A4601EB5F
:104C4000C001334651E9020101F070FDCDE91601C2
:104C50003846414602F01AF8054601F001FD0246C9
:104C60000B463846414601F0ADFB06461298049AC1
:104C70003035012815700F4602F1010526D0129B30
:104C8000049ACDF8489013444FF0000A9946DFF893
:104C900030B152465B463046394601F047FD0F467B
:104CA000064601F0F3FF804601F0DAFC02460B46AF
:104CB0003046394601F086FB08F1300805F8018BD3
:104CC0004D4506460F46E4D1DDF848900022DDE967
:104CD00016013A4B01F078FB32463B4601F098FF53
:104CE000002846D0159B029315F8018CFFF742BBB4
:104CF0004FF000084646A8E60A9B079A9D1A002333
:104D0000FFF770BB189B0C9FC3F136030A9DFFF79A
:104D100069BBDDE910784FF0020A6DE5079B002BB7
:104D20003FF4B8AE0F9B002B7FF7DEAE0022244B82
:104D30003846414601F0FAFC074688460AF1010070
:104D400001F08EFC3A46434601F0F0FC0022174B7E
:104D500001F03AFB029A0F9B013A05461592A1F128
:104D60005076129369E53922B3463A70089E7D1C4D
:104D7000BFE4DDE916230020104901F023FB324691
:104D80003B4601F063FF08B9AEE6154615F8013C55
:104D90006A1E302BF9D0D7E5DDF84890159B0293B9
:104DA000FFF7E8BA0C97FFF7A7BB00BF00001C4055
:104DB00000001440C8700800A07008000000E03F28
:104DC00000002440392BCDF820B0D046DDF81CB0CF
:104DD0009A46C8D0BBF1000F3FF7C0AEC0E67FF4E3
:104DE000BFAE1AF0010F3FF4BBAEB3E64FF00008C0
:104DF0004646E8E5314600230A22204600F02EFD13
:104E00000F9B0646002B07DD0793FFF7ABBB249BE8
:104E1000022B1FDC0F9B3CE4249B022B1ADC0F9B14
:104E2000F2E73FF481ABC0F13C0011E400252046DD
:104E30006564294600F0E2FC4FF0FF3307930F93BF
:104E400001230490259520640B93FFF7E0B9012519
:104E5000FFF7A8B90F9B0793E8E500BF38B50A4CE8
:104E60000A4D641BA4100AD004F18043013B05EBFA
:104E70008305013C55F804399847002CF9D1BDE869
:104E8000384002F017BA00BFC4720800C0720800B0
:104E9000F8B50C46234F064600F0A4FCBB68C4F5E9
:104EA0007E615D680F3125F00305294421F47F619F
:104EB00021F00F01A1F58054B4F5805F07DB0021DC
:104EC000304601F04DF9BB682B44984204D030467F
:104ED00000F08EFC0020F8BD6142304601F040F940
:104EE00001300DD0104BBA6819682D1B45F0010533
:104EF0003046091B5560196000F07AFC0120F8BDAE
:104F00000021304601F02CF9BA68831A0F2BDEDD40
:104F1000064C0549246843F00103001B53600860F8
:104F2000D5E700BF70070720C40D0720780B0720C6
:104F3000002944D02DE9F0410D46804600F052FC96
:104F400055F8047C6949A5F1080427F00103E2182B
:104F50008E685068B24220F003005ED0FE075060B9
:104F60000BD455F8087C01F1080EE41BA5683B44FE
:104F700075456DD0E768EF60BD6015186D68ED0789
:104F80003ED543F001026260E350B3F5007F17D2D3
:104F90000122DB0898104D68134451F833708240A9
:104FA00001EBC3002A430838E060A7604A6041F87B
:104FB0003340FC604046BDE8F04100F019BC70474A
:104FC0005A0A042A52D89A0902F13907FF0002F15D
:104FD0003805C819CA59083890424FD0516821F095
:104FE00003018B4232D292689042F7D1C368A0602D
:104FF000E3609C60C4604046BDE8F04100F0F8BB4F
:1050000095683B4F0344BD4240D0D06843F0010255
:10501000E86085606260E350B7E7FF07034407D4A8
:1050200055F8085C641BE268A0682B44C26090607D
:10503000304A43F001001268606093428C60B9D33B
:105040002D4B40461968FFF723FFB3E71046CDE725
:1050500011184968C90744D491680344D26843F0E1
:105060000100CA6091606060E350A3E7142A16D87B
:1050700002F15C07FF0002F15B05AAE70123AA1019
:105080004D6893402B434B600346B0E743F0010269
:105090004C610C61E560A5606260E3508AE7542AC8
:1050A00006D81A0B02F16F07FF0002F16E0590E7B8
:1050B000B2F5AA7F06D8DA0B02F17807FF0002F1F9
:1050C000770586E740F25450824206D89A0C02F1E6
:1050D0007D07FF0002F17C057BE74FF47E777E259C
:1050E00077E743F001016160136063E77007072011
:1050F000780707207C0B0720F40D0720044A054B96
:105100001268506B002808BF1846F030704700BF87
:10511000D401072004060720704700BF704700BF76
:105120002DE9F04F01F10B06162E83B0054640F233
:105130009E8036F0070600F1BD80B14200F2BA80D1
:1051400000F050FBB6F5FC7FC0F08582730A00F0DA
:10515000B880042B00F26C81B30903F1390003F12C
:10516000380EC100B84F39444C680839A14206D105
:105170000CE0002A80F2AB80E468A14206D06368AC
:1051800023F003039A1B0F2AF3DD70463C69DFF816
:10519000CCE2744500F09E81636823F003039A1B00
:1051A0000F2A00F38381002AC7F814E0C7F810E043
:1051B00080F29180B3F5007F80F054810122DB08FA
:1051C00079684FEAA30C134457F8338002FA0CF2C3
:1051D00007EBC30C0A43ACF10801E160C4F8088096
:1051E0007A6047F83340C8F80C40012483109C4093
:1051F00094427DD8144206D120F00300640014428A
:1052000000F10400FAD007EBC009CC468046DCF878
:105210000C309C4507D15FE1002A80F26D81DB688C
:105220009C4500F05981596821F003018A1B0F2A1F
:10523000F2DDDC68D3F808C046F0010828461E44B9
:1052400042F00105C3F80480CCF80C40C4F808C053
:105250007E613E61C6F80CE0C6F808E075605A5001
:10526000009300F0C5FA009B03F108041EE010292A
:1052700020D800F0B7FA102618230220724F3B44C2
:105280005C68A3F10802944200F02F816368E16832
:1052900023F0030323445A68A66842F00102F16038
:1052A00028468E605A6000F0A3FA0834204603B006
:1052B000BDE8F08F00240C2320462B6003B0BDE82E
:1052C000F08F40204FF400714FF03F0E4AE7234427
:1052D0005A68E168E0E723445A68284642F0010230
:1052E0005A60083400F084FA204603B0BDE8F08F1D
:1052F000BC68636823F00308B04504D3A8EB060339
:105300000F2B00F38580DFF85891504BD9F800201F
:105310001B680132334404EB080A00F0548103F5A2
:1053200080530F3323F47F6B2BF00F0B5946284625
:1053300000F016FF411C024600F0FB80824500F29F
:10534000F680434B19685944196000F04C81D9F834
:10535000000001301BBFA2EB0A0A5144C9F800202B
:10536000196012F0070100F01481C1F10800C1F5C5
:1053700080510244083102EB0B09C9F30B09A1EB80
:105380000909494628460193009200F0E9FE431CB2
:105390009DE80C0000F04281801A484440F0010072
:1053A0001968BC424944BA601960506017D0B8F11E
:1053B0000F0F40F2FA804FF0050C6268A8F10C0064
:1053C00020F0070002F0010204EB000E02430F2858
:1053D0006260CEF804C0CEF808C000F216811D4B02
:1053E000BC681A68914288BF19601B4B1A689142C9
:1053F000626888BF196022F003029642A2EB06039E
:1054000001D80F2B04DC284600F0F2F900244DE708
:1054100046F0010243F00103264462602846BE6064
:105420000834736000F0E4F9204603B0BDE8F08F63
:10543000142B70D9542B00F2A280330B03F16F00B0
:1054400003F16E0EC1008DE670070720F40D0720F2
:10545000C40D0720EC0D0720F00D0720780707206A
:10546000780B07205A0A042A5BD9142A00F2AE806E
:1054700002F15C01C9005B3207EB010C7958ACF119
:10548000080C8C4500F088804A6822F003029342A1
:1054900073D289688C45F7D1DCF80C307A68E36008
:1054A000C4F808C09C60CCF80C409EE646F0010CA5
:1054B00042F001012644C4F804C028467E613E61E2
:1054C000C6F80CE0C6F808E07160E25000F090F910
:1054D0000834EBE67A6888E608F1010818F0030F53
:1054E0000CF1080C7FF493AE2DE0DC68A34208BFFA
:1054F00002303FF44BAEC9E61C4619444A68DB68EB
:1055000054F8086F42F001024A602846F3609E603A
:1055100000F06EF9CAE603F15C0003F15B0EC10016
:1055200020E69A0902F13901C9003832A4E7BC42E9
:1055300054D0BC68626822F003025EE759F808396B
:10554000994540F0868010F0030F00F1FF30F5D14F
:105550007B6823EA04037B6064009C423FF6C8AE8C
:10556000002C3FF4C5AE1C4240467FF44CAE6400B4
:105570001C4200F10400FAD045E68C468CE7B3F5F6
:10558000AA7F15D8F30B03F1780003F1770EC10061
:10559000E8E54FF48051EEE601217B68921001FAB4
:1055A00002F21A437A60634679E7012353602AE7DF
:1055B00040F25452934222D8B30C03F17D0003F120
:1055C0007C0EC100CEE503F1100BAFE6542A29D8BA
:1055D0001A0B02F16F01C9006E324DE7204B1968BA
:1055E00059441960B3E6CAF30B0000287FF4AFAE4C
:1055F00008EB0B03BA6843F001035360EFE67F202A
:105600004FF47E714FF07E0EACE504F108012846A0
:105610000093FFF78DFC009B1968E0E601204FF036
:105620000009BDE6B2F5AA7F05D8DA0B02F17801D0
:10563000C900773220E740F254518A4205D89A0CCB
:1056400002F17D01C9007C3216E74FF47E717E22A3
:1056500012E77B6880E7F00806F108030EE600BF5A
:10566000C40D072082B049B15AB16BB113780B60F9
:105670001278101C18BF012002B0704701A9002A3F
:10568000F3D1104602B070476FF00100F4E700BF9D
:10569000830770B4CDB23DD0541E0AB30378AB4239
:1056A0001FD0431C05E014F1FF3419D30278AA423D
:1056B00017D013F0030F184603F10103F3D1032CA5
:1056C00011D84CB30378AB420BD00444431C02E026
:1056D0000278AA4205D09C42184603F10103F7D193
:1056E000002070BC7047090289B2294341EA014198
:1056F000036806464B40A3F1013222EA030313F08C
:10570000803F00F1040003D1043C032CF0D8D8E71B
:105710003046D7E71446D2E72046E2E78842F0B5A4
:105720000DD98B1898420AD28418002A51D02246EB
:1057300013F8014D994202F8014DF9D1F0BD0F2A3D
:1057400048D941EA00039B0746D1154600F11004F1
:1057500001F1100353F8106C103D44F8106C53F82D
:105760000C6C0F2D44F80C6C53F8086C04F1100409
:1057700044F8186C53F8046C03F1100344F8146CEB
:10578000E8D8A2F1100323F00F0302F00F0E10333C
:10579000BEF1030F1944034421D90E4674461D1F60
:1057A00056F8047B043C032C45F8047FF8D8AEF18E
:1057B000040424F0030404342144234402F00302CB
:1057C00062B1013B0A4411F8014B8A4203F8014FD0
:1057D000F9D1F0BD0346F3E70346F2E7F0BD7246A8
:1057E000EEE700BF0148FFF797BC00BF280E072077
:1057F0000148FFF793BC00BF280E0720C36C70B5AB
:1058000005460C464BB153F8240080B1026843F8BA
:10581000242000230361C36070BD2122042100F015
:105820009DFDE86403460028EDD1002070BD0121F4
:1058300001FA04F6721D2846920000F08FFD002840
:10584000F3D044608660E4E731B1C36C4A6853F832
:105850002200086043F82210704700BFF0B50C46E4
:1058600005464FF0000E0E6983B001F11407386849
:105870000EF1010E81B202FB0133010C180C02FB88
:1058800001019BB203EB0143764547F8043B4FEA25
:105890001143ECDC3BB1A268964207DA04EB8602C6
:1058A000013653612661204603B0F0BD6168284689
:1058B00001310193FFF7A2FF0746226904F10C01B1
:1058C000023292000C30FCF747FFEA6C6168019BE2
:1058D00052F82100206042F821403C46DEE700BF3C
:1058E000020C12040346B2B90304102013F07F4FD8
:1058F00004BF1B02083013F0704F04BF1B010430BB
:1059000013F0404F04BF9B000230002B02DB5B0012
:1059100003D4202070470020E8E70130704700BF23
:105920000368014613F0070207D0DA0721D498076D
:1059300021D49B080B600220704798B298B11046A2
:1059400013F0FF0F04BF1B0A08301A0704BF1B091E
:1059500004309A0704BF9B080230DA0707D45B08BB
:1059600004D1202070471B0C1020E9E701300B60A8
:105970007047002070475B080B600120704700BF34
:1059800010B50C460121FFF739FF01224461026185
:1059900010BD00BF2DE9F04F0C69156983B0AC4212
:1059A0008B46164604DA2246B3462C460E4615466A
:1059B000DBF8083004EB0508DBF804109845C8BF95
:1059C0000131FFF71BFF00F1140909EB880AD145EB
:1059D000009005D24B46002143F8041B9A45FBD8A2
:1059E00006F1140C0CEB85030BF1140B9C450BEB2F
:1059F000840E4BD2CDF804A09A46DCF80050AFB22A
:105A0000E7B14D465E46002156F8042B286893B254
:105A100084B2120C07FB0343000C07FB02020B4489
:105A200002EB13419BB243EA0143B64545F8043B00
:105A30004FEA1141E8D82960DCF800502D0C1DD048
:105A4000D9F8003048461C46594600220E88240CDE
:105A500005FB06449BB2224443EA024340F8043B60
:105A600051F8043B04681B0CA6B205FB03638E458A
:105A700003EB12434FEA1342E8D803600CF1040C25
:105A8000E24509F10409B8D8DDF804A0B8F1000F27
:105A90000BDD5AF8043CAAF1040A1BB105E05AF8E0
:105AA000043D13B9B8F10108F9D10098C0F810808D
:105AB00003B0BDE8F08F00BF12F003032DE9F04101
:105AC000144607462ED10D46A4101CD0BE6C96B3CA
:105AD000E3074FF0000806D4641014D03068A8B172
